:100000000C9463130C9463130C9463130C94631398
:100010000C9463130C9463130C9463130C948DAAC7
:100020000C94BFAA0C94F1AA0C9423AB0C94631308
:100030000C9463130C9463130C9463130C94631368
:100040000C9463130C9463130C9463130C94631358
:100050000C9463130C9463130C9463130C94631348
:100060000C9450480C9463130C9463130C94631316
:100070000C9463130C9463130C9463130C94631328
:100080000C9463130C9463130C9463130C94631318
:100090000C9463130C9463130C9463130C94631308
:1000A0000C9488180C9463130C9463130C946313CE
:1000B0000C9463130C9463130C9463130C946313E8
:1000C0000C9463130C9463130C9463130C946313D8
:1000D0000C9463130C9463130C9463130C946313C8
:1000E0000C9463130C9463130C9463130C946313B8
:1000F0000C9463130C9463130C9463133B593C5995
:1001000000000000FFFFFFFFFFFFFFFFFFFFFFFFFB
:10011000FFFFFFFFFFFFFFFFFFFFFFFFFFFFFFFFEF
:10012000FFFFFFFFFFFFFFFFFFFFFFFFFFFFFFFFDF
:10013000FFFFFFFFFFFFFFFFFFFFFFFFFFFFFFFFCF
:10014000FFFFFFFFFFFFFFFFFFFFFFFFFFFFFFFFBF
:10015000FFFFFFFFFFFFFFFFFFFFFFFFFFFFFFFFAF
:10016000FFFFFFFFFFFFFFFFFFFFFFFFFFFFFFFF9F
:10017000FFFFFFFFFFFFFFFFFFFFFFFFFFFFFFFF8F
:10018000FFFFFFFFFFFFFFFFFFFFFFFFFFFFFFFF7F
:10019000FFFFFFFFFFFFFFFFFFFFFFFFFFFFFFFF6F
:1001A000FFFFFFFFFFFFFFFFFFFFFFFFFFFFFFFF5F
:1001B000FFFFFFFFFFFFFFFFFFFFFFFFFFFFFFFF4F
:1001C000FFFFFFFFFFFFFFFFFFFFFFFFFFFFFFFF3F
:1001D000FFFFFFFFFFFFFFFFFFFFFFFFFFFFFFFF2F
:1001E000FFFFFFFFFFFFFFFFFFFFFFFFFFFFFFFF1F
:1001F000FFFFFFFFFFFFFFFFFFFFFFFFFFFFFFFF0F
:10020000215922592359245925593A593A592659DD
:100210002759285929592A592B592C592D592E59C2
:100220002F593059315932593A593359345935596E
:100230003659375938593959436B6D6B976B6E6E18
:10024000766E6E6D977ECA6EFB6E036F666F327050
:10025000AE6FBE6D596DAE6D7E6DB66FF47E346F50
:100260007F7D1A700A701270AA6B6E6F22709E6D7D
:100270008E6D9F6B2A707E6F4074CD74F36F5C6CD3
:10028000406C546CC66D106E0E7A77747E745E6E20
:1002900086748D7495743B6B7E6C866CC06C8E6CB2
:1002A000496D3C6E2E6EAF74E27BE07C517EB7747C
:1002B000BE74DD76C372B271EC7D7E6EBF7AAB7AAE
:1002C0008E6FFF79E46D006E086E4871386C966F22
:1002D0009E6FA66FC6740A712971C97EAB7D017FBE
:1002E000F86DCF80119B0792F0827D83A78E368FA9
:1002F0006E917B91EE865385258AF6898891CF8F02
:10030000438FA4838A8397837F90EA90BD85878CEF
:10031000E38AF88AEE91D38D95913A869486DF88A8
:100320003489D283C9893085D491E1911492C192E4
:100330003D929085528A818AAE8A4A92488555922A
:100340007B926099849A60929792AC92658B0386B7
:100350000D8B3B85F792FE97C896459B21922F9275
:10036000459B7196EF950C95459B02932B9B084AF4
:10037000D73B3BCE016E84BCBFFDC12F3D6C7431B9
:100380009ABD56833DDA3D00C77F11BED9E4BB4C10
:100390003E916BAAAABE000000803F05A84CCDB2DA
:1003A000D44EB93836A9020C50B9918688083CA6BB
:1003B000AAAA2ABE000000803F0664EC1B3C04BCD5
:1003C000163E3BE5B93CC93C37C29E5A3D6604988F
:1003D000083EEA69AAAA3E000000803F41542B462D
:1003E00054504745543D322C3235360D0043504968
:1003F0004E3A205245414459002B435041533A2034
:1004000030004F4B0041542B434744434F4E543D23
:10041000312C224950222C2200220D004F4B00414A
:10042000542B435354543D2200222C2200222C22D0
:1004300000220D004F4B004F4B0041542B434950BD
:1004400053544152543D22544350222C2200222C1A
:100450002200220D0041542B434950535441525421
:100460003D22544350222C2235392E3137362E313D
:1004700032372E323338222C223331303030220DB5
:1004800000434F4E4E454354204F4B002B435245A3
:10049000473A004E4F5420464F554E44004E4F545D
:1004A00020464F554E44004E4F5420464F554E4423
:1004B000004E4F5420464F554E44002B4353513A63
:1004C000004F4B0041542B434744434F4E543D3162
:1004D0002C224950222C2200220D0041542B435340
:1004E00054543D2200222C2200222C2200220D00F6
:1004F0004F4B004C4F434154494F4E204E414D45C8
:10050000204E4F5420464F554E4400244750524DE4
:1005100043004E4F5420464F554E4400434F4E4EDD
:10052000454354204F4B00244C4F432C002C232C8C
:1005300000244C4F432C002C232C004441544120D8
:100540004143434550540041542B434E4D493D32A5
:100550002C312C302C302C300D004F4B002B4350C5
:1005600041533A20300041542B53415042523D33C5
:100570002C312C22436F6E74797065222C224750E7
:100580005253220D004F4B0041542B5341504252C5
:100590003D332C312C2261706E222C2200220D0062
:1005A0004F4B0041542B53415042523D322C310DA0
:1005B000004F4B0041542B465450524553543D007C
:1005C0000D004F4B0041542B53415042523D312CB2
:1005D000310D0041542B465450534552563D220094
:1005E000220D004F4B0041542B465450554E3D2296
:1005F00000220D004F4B0041542B46545050573DA4
:100600002200220D004F4B0041542B4654504745C9
:10061000544E414D453D2200220D004F4B004154A8
:100620002B465450474554504154483D222F636F48
:1006300064652F220D004F4B0041542B465450430C
:1006400049443D310D004F4B0041542B4654504717
:1006500045543D310D002B4654504745543A312CFA
:10066000310041542B43495053544152543D22547C
:100670004350222C2200222C2200220D0041542B18
:1006800048545450504152413D2255524C222C2244
:10069000687474703A2F002F6D6170732E676F6FDE
:1006A000676C652E636F6D2F6D6170732F67656F5B
:1006B0003F713D002C002673656E736F723D74723E
:1006C0007565266B65793D2700220D004F4B002B89
:1006D00048545450414354494F4E3A302C323030F4
:1006E000002261646472657373223A2022004E4FC7
:1006F0005420464F554E44002B435041533A20302E
:10070000004F4B0041542B53415042523D332C314A
:100710002C2261706E222C22004F4B004F4B004F59
:100720004B004F4B0041542B4854545050415241C0
:100730003D2255524C222C22687474703A2F002F9F
:100740006D6170732E676F6F676C652E636F6D2FB1
:100750006D6170732F67656F3F713D002C002673CC
:10076000656E736F723D74727565266B65793D2792
:1007700000220D002B48545450414354494F4E3AE7
:10078000302C323030002261646472657373223A17
:100790002022004E4F5420464F554E44002B4345D7
:1007A0004E473A300022002C002C002C002C002C4C
:1007B000002C002C002C002C002B435041533A20DD
:1007C00030004F4B0041542B53415042523D332C8B
:1007D000312C2261706E222C22004F4B004F4B00B7
:1007E0004F4B004F4B0041542B48545450504152F2
:1007F000413D2255524C222C22687474703A2F00CD
:100800002F7777772E6F70656E63656C6C69642ED9
:100810006F72672F63656C6C2F6765743F6B6579CA
:100820003D00266D6E633D00266D63633D00266CC2
:1008300061633D002663656C6C69643D00220D00B8
:100840002B48545450414354494F4E3A302C323087
:1008500030006C61743D006C6F6E3D004C41543D46
:10086000002C003B002B43454E473A300022002C21
:10087000002C002C002C002C002C002C002C002C18
:100880000041542B48545450504152413D2255523E
:100890004C222C22687474703A2F002F7777772EB1
:1008A0006F70656E63656C6C69642E6F72672F6321
:1008B000656C6C2F6765743F6B65793D00266D6EC6
:1008C000633D00266D63633D00266C61633D002639
:1008D00063656C6C69643D00220D004F4B002B4832
:1008E000545450414354494F4E3A302C323030002A
:1008F0006C61743D006C6F6E3D004C41543D002CAA
:10090000003B002200777777006162630031323369
:1009100034350061697263656C677072730061627F
:10092000630031323334350061697274656C67700D
:1009300072732E636F6D0061626300313233343540
:1009400000696E7465726E657400616263003132B5
:1009500033343500455849540052454652455348B2
:100960000040002400455849540052454652455322
:100970004800400024003E0053454E44204F4B00A9
:10098000434F4E4E454354204F4B00434F4E4E4530
:100990004354204F4B003E003E002B43454E473A08
:1009A000300022002C002C002C002C002C002C00ED
:1009B0004F4B004350494E3A205245414459002B79
:1009C000434C49503A002B435042523A002B43507B
:1009D00042523A002B435245473A004552524F5239
:1009E000000A004F4B00434F4E4E454354204F4B9F
:1009F00000434F4E4E454354204F4B004E4F542022
:100A0000464F554E44004E4F5420464F554E4400DD
:100A10002B4654504745543A322C003A303030304F
:100A2000303030314646003A3030303030303031BE
:100A30004646004F4B002B4654504745543A312C04
:100A400030006161616161610096240000A02401B1
:100A500000A9240E00AC240200B9240300C624041B
:100A600000CF240500D8240600E3240700EF241358
:100A700000F3242700F8241200FE24280002252970
:100A80000006252A000A250A000E250B001225164D
:100A9000001A251700232510002625110029253CC2
:100AA0000030253D00382514003C250C004225204F
:100AB0000046251A004B25210052251D0059251EF0
:100AC00000642525006F252C0077250F007B251954
:100AD00000812535008A25180091251500962522CC
:100AE00000A2252300AD250D00B7252400BB251B42
:100AF00000BF251C00C7252600CE254100D5252B8B
:100B000000DA253700E0250800E4250900E8251F64
:100B100000F1252D00F9252E0000262F0008263093
:100B200000162631001E263F0021264000242638CC
:100B3000002E263200362633003F263B004B263E51
:100B4000005826390061263A0065263400702636A2
:100B50000074264200782643005254002200474584
:100B60004F46454E43453F003B0047454F46454EA7
:100B700043453A3A004143443A3A004D4144443AED
:100B80003A005354443A3A0050524F544F434F4C5A
:100B90003A3A003B004B45593A3A003B0041475036
:100BA000534B45593A3A003B0043434D3A3A2D2ABC
:100BB0002E2A0043434D3A3A2D2D0043434D3A3AF5
:100BC0002B2B0043434D3A3A3F004E4F5420464FA3
:100BD000554E440047505320494E56414C4944001D
:100BE0004C41543D004C41543D004E4F5420464F23
:100BF000554E44004C46443A3A005441443A3A0077
:100C00004A41443A3A004941443A3A004341443A5D
:100C10003A004641443A3A0023726570726F677237
:100C2000616D3A3A003A3A003A3A003A3A003B00EB
:100C3000524D44523F00524D44522D2D2A2E2A002F
:100C4000524D44522D2D4F00524D44522D2D5000E7
:100C5000524D44522D2D4900524D44523A3A0045CE
:100C600052524F523F004552524F523A3A003B00C7
:100C70005254004552524F52000A0053494D5345B9
:100C8000525645523A3A2D2D3B0053494D53455249
:100C90005645523F0053494D5345525645523A3AF4
:100CA000003B005243414C4C3A3A003B003B0D00A4
:100CB00042414C3A3A003B00222C31350D002200D3
:100CC000504E533A3A2D2D00504E533F00504E5344
:100CD0003A3A003A3A003A3A003B005345544F44FE
:100CE0004F3F005345544F444F3A3A2D2D3B00534C
:100CF00045544F444F3A3A003B004D533F004D534B
:100D00003A3A003B004E533F004E533A3A003B0004
:100D10004654533A3A003B002C002C003A3A002348
:100D20006675656C63616C3F00236675656C636115
:100D30006C3F3F00236675656C63616C454600231C
:100D40006675656C63616C465300236675656C63FC
:100D5000616C3A3A003B003A3A003B0023636F6E05
:100D60006669673F0023636F6E6669673A3A003AC7
:100D70003A003A3A003B00220023736572766572AE
:100D80006368616E67653F002373657276657263A1
:100D900068616E67653A3A003A3A003B002B393198
:100DA00039383130303136363634002B3931393834
:100DB0003130303139393537002B39313939393023
:100DC000333333373336002B393139383130303122
:100DD00036363634002B3931393831303031393903
:100DE0003537002B393139393930333333373336EE
:100DF0000049474E204F4E000A474C4F433A0A00E5
:100E00004E4F5420464F554E4400474F4F474C4598
:100E1000204C4F434154494F4E204E4F5420464F93
:100E2000554E44004947204F4646000A474C4F4321
:100E30003A0A004E4F5420464F554E4400474F4FFC
:100E4000474C45204C4F434154494F4E204E4F5440
:100E500020464F554E440053454E4420505245566F
:100E6000494F5553204D534700434F4E4649475530
:100E7000524154494F4E204D454D4F525920444503
:100E80004C4554454420434F4D504C4554454C59D6
:100E900000204E4554574F524B205245434F524429
:100EA0002044454C45544544005245434F5244204C
:100EB0004E4F5420464F554E4400204E4554574FF8
:100EC000524B205245434F52442041444445440034
:100ED000434F4E46494755524154494F4E204D4588
:100EE0004D4F52592046554C4C00204E4554574FBB
:100EF000524B205245434F524420414C52454144AD
:100F000059204558495354005245434F52442046B6
:100F10004F52204E4554574F524B220022204558E5
:100F200049535420574954480A41504E3A000A55F3
:100F30004E3A000A50573A00204E4554574F524BF4
:100F4000205245434F524420414C52454144592080
:100F5000455849535400464C41534820574F524B33
:100F6000494E4700464C415348204E4F5420574F5E
:100F7000524B494E4700464C41534820455241533D
:100F80004520434F4D504C45544500220022004F10
:100F900050455241544F52204E4F5420464F554ECB
:100FA00044004F50455241544F52204E4F5420461A
:100FB0004F554E4400415049204B45592053544F02
:100FC000524544004147505320415049204B455918
:100FD0002053544F5245440047505320494E5641E8
:100FE0004C4944004C4F434154494F4E204E414DD3
:100FF00045204E4F5420464F554E442041532047E4
:10100000505320495320494E56414C494420545294
:1010100059204745544C4F434147505320434F4D6F
:101020004D414E44004E4F5420464F554E44004CC7
:101030004F434154494F4E204E414D45204E4F5451
:1010400020464F554E4400415049204B4559204EB3
:101050004F542053544F524544004E4F5420464F56
:10106000554E44004C4F434154494F4E204E414D44
:1010700045204E4F5420464F554E44000A4C415394
:1010800054204C4154204C4F4E47204152450A00B9
:101090000A4147505320494E464F2049530A004DBC
:1010A00043433A000A4D4E433A000A4C41433A004A
:1010B0000A43454C4C2049443A0041475053204193
:1010C0005049204B4559204E4F542053544F5245C0
:1010D0004400415049204B4559204E4F5420535411
:1010E0004F524544004C4F43204645544348494ED7
:1010F000472044495341424C4544004C4F4320460D
:1011000045544348494E4720454E41424C454400D2
:101110004A45524B20414C45525420454E41424C89
:101120004544004A45524B20414C455254204449C5
:101130005341424C45440050524F544F434F4C2072
:101140003020484153204245454E204143544956A2
:10115000415445440050524F544F434F4C2031208E
:10116000484153204245454E20414354495641543D
:10117000454400544F5720414C45525420454E4160
:10118000424C454400544F5720414C455254204452
:10119000495341424C4544004655454C20414C453D
:1011A000525420454E41424C4544004655454C2042
:1011B000414C4552542044495341424C4544004916
:1011C000474E20414C45525420454E41424C4544E7
:1011D0000049474E20414C45525420444953414216
:1011E0004C454400434F4D4D4F4E20414C455254C9
:1011F00020454E41424C454400434F4D4D4F4E20FB
:10120000414C4552542044495341424C45440056B8
:10121000454849434C4520455850455249454E4361
:1012200045442041204A45524B0054455354204DDB
:101230004F44452041435449564154454400564586
:101240004849434C45204953204245494E47205484
:101250004F57454400494E535552414E4345204552
:1012600058504952454400504F4C4C5554494F4EEC
:1012700020455850495245440054455354204D4F41
:101280004445204445414354495641544544005344
:10129000595354454D204953204F5554204F462013
:1012A000534C4545500053595354454D2049532004
:1012B000494E20534C45455000464153542054520A
:1012C00041434B494E4720454E41424C4544004323
:1012D0004F4E54494E554F555320545241434B495C
:1012E0004E4720454E41424C4544005359535445C6
:1012F0004D20535441525420484153204245454EBD
:101300002041435449564154454400535953544590
:101310004D2053544F50504544004675656C204451
:10132000656372656173656420416C657274204306
:10133000757272656E742056616C756520496E20F9
:101340004C5452204973004675656C20496E637297
:10135000656173656420416C6572742043757272B7
:10136000656E742056616C756520496E204C545230
:1013700020497300545241434B415220535441522F
:10138000542041435449564154454420464F52202D
:101390000020494E54455256414C0047534D20546D
:1013A0005241434B494E472053544F5050454400FF
:1013B00057454220535441525420414354495641C9
:1013C00054454420464F52200020494E5445525621
:1013D000414C004753454E534F5220574F524B49B3
:1013E0004E47000A554E4954204953204E4F542031
:1013F000494E204D4F54494F4E000A554E495420F6
:10140000495320494E204D4F54494F4E000A554EE6
:10141000495420495320494E20534C454550000A19
:10142000554E4954204953204E4F5420494E205385
:101430004C454550004753454E534F52204E4F5454
:1014400020574F524B494E47005745422054524176
:10145000434B494E472053544F505045440041752B
:10146000746F20436F6E66696775726174696F6E21
:1014700020466561747572652044697361626C65AC
:1014800064004175746F20436F6E666967757261A1
:1014900074696F6E204665617475726520456E6172
:1014A000626C6564004D49535343414C4C204241AA
:1014B0005345442041524D2044495341524D20460A
:1014C00045415455524520454E41424C4544004DFE
:1014D00049535343414C4C204241534544204152CF
:1014E0004D2044495341524D2046454154555245A3
:1014F0002044495341424C45440054616D7065722B
:10150000696E673A204D61696E20506F7765722071
:10151000446973636F6E6E65637465640054616DD6
:10152000706572696E673A2047534D20416E74654D
:101530006E6E612054616D70657265640054616DFA
:10154000706572696E673A2047505320416E6E7421
:10155000656E612054616D706572656400576172DB
:101560006E696E673A204C6F7720426174746572C1
:10157000790053595354454D205245534554204307
:101580004F4D504C4554450053494D2053455256FC
:1015900045522044454C455445440053494D205341
:1015A00045525645522049533A3A0053494D20532B
:1015B0004552564552204E4F542053544F524544A5
:1015C0000053494D20534552564552204348414E01
:1015D00047454420544F3A3A00435553443A20304B
:1015E0000042414C414E43452043414E2754204246
:1015F000452044455445524D494E45442054525986
:1016000020414654455220534F4D452054494D45A5
:10161000004F555450555420414354495641544568
:1016200044004F5554505554204445414354495665
:10163000415445440043415220484F524E204F4EA2
:1016400020484153204245454E204143544956418C
:101650005445440043415220484F524E204F464685
:1016600020484153204245454E204143544956416C
:10167000544544004741494E204C4556454C20486E
:101680004153204245454E204D4F4449464945442B
:10169000004C61743A20000A4C6F6E673A20000AD1
:1016A00053706565643A20000A446174653A20000D
:1016B0000A54696D653A2000687474703A2F2F6D72
:1016C0006170732E676F6F676C652E636F6D2F6D22
:1016D0006170733F713D00475053204E4F54204678
:1016E0004F554E440A00414E44204C415354204C27
:1016F0004154204C4F4E47204152450A000A414771
:10170000505320494E464F2049530A004D43433A17
:10171000000A4D4E433A000A4C41433A000A434501
:101720004C4C2049443A00494E505554205448529C
:101730004545204C4F5700494E5055542046495678
:1017400045204C4F5700494E50555420534958207E
:101750004C4F5700494E50555420534556454E2046
:101760004C4F5700494E505554205448524545203F
:101770004849474800494E5055542046495645204F
:101780004849474800494E5055542053495820482D
:1017900049474800494E50555420534556454E2020
:1017A000484947480056454849434C45204953203D
:1017B0004F5554534944450A000A434C4F433A009D
:1017C00056454849434C4520495320414741494EDD
:1017D00020494E534944450A000A434C4F433A00BE
:1017E00056454849434C45204953204F5554534989
:1017F000444520444546494E4544205241444955BC
:10180000530056454849434C4520495320414741E0
:10181000494E20494E534944452020444546494EAF
:101820004544205241444955530047454F46454E93
:1018300043494E472053455420464F52204E414D78
:10184000453A3A0A2200220A0047454F46454E4390
:10185000494E472053455420464F52205241444957
:1018600055533A3A0A2200204B4D22002041542081
:101870004C41543D002C4C4F4E473D0047454F4690
:10188000454E43494E47204953204F464600474561
:101890004F46454E43494E472053455420464F52EC
:1018A000204E414D453A3A0A2200220047454F4614
:1018B000454E43494E472053455420464F522052EF
:1018C00041444955533A3A0A2200204B4D22002008
:1018D0004154204C41543D002C4C4F4E473D00524A
:1018E00041444955532047454F46454E43452053B3
:1018F0004554004E414D45442047454F46454E43D3
:10190000452052454D4F5645440052414449555398
:101910002047454F46454E43452052454D4F56457D
:10192000440047505320494E56414C4944204341BE
:101930004E27542053455420524144495553204783
:10194000454F46454E434500414C4C20414C455285
:1019500054532044495341424C454400504F4C4C51
:101960005554494F4E20414C45525420444953410F
:10197000424C454400494E535552414E4345204147
:101980004C4552542044495341424C454400464C36
:10199000455849424C4520414C45525420444953F6
:1019A00041424C454400504F4C4C5554494F4E20F9
:1019B000414C4552542053455420464F523A3A0028
:1019C0002F002F000A494E535552414E43452041A6
:1019D0004C4552542053455420464F523A3A002F1A
:1019E000002F000A464C455849424C4520414C4581
:1019F00052542053455420464F52204D53470A22FB
:101A000000222041543A3A002F002F0052454D4900
:101A10004E44455220414C455254204953204F4694
:101A20004600504F4C4C5554494F4E20414C455266
:101A30005420454E41424C454400494E5355524175
:101A40004E434520414C45525420454E41424C4561
:101A50004400464C455849424C4520414C4552545F
:101A600020454E41424C4544004350552052455379
:101A70005441525445442044554520544F0020536E
:101A80004F4654574152452052455345540020502B
:101A9000444920524553455400205741544348443B
:101AA0004F47205245534554002042524F574E2035
:101AB0004F555420524553455400204558544552E3
:101AC0004E414C2052455345540020504F574552EB
:101AD00020464C554354554154494F4E00444F4FB6
:101AE00052204953204F50454E0053454E53494EC6
:101AF00047204F4E20484153204245454E20414308
:101B0000544956415445440053454E53494E47208D
:101B10004F464620484153204245454E20414354BC
:101B20004956415445440041524D204D4F444520B3
:101B3000484153204245454E204143544956415463
:101B400045440041524D204D4F44452048415320CB
:101B50004245454E2044454143544956415445442D
:101B60000056455253494F4E2041355F3930305F62
:101B7000474D5F4600534C454550204D4F4445204E
:101B8000484153204245454E204143544956415413
:101B9000454400534C454550204D4F444520484155
:101BA00053204245454E20444541435449564154F3
:101BB0004544005761726E696E673A20534F532057
:101BC0004D657373616765212100434E3A000A0039
:101BD00057544F4E2D004D004800440053000A005A
:101BE00057544F4646000A004654000A004354002A
:101BF0000A00534F4E000A00534F4646000A005356
:101C00004744433A0047534D5F4F4E2D004D004827
:101C100000440047534D5F4F4646003B200A0047B3
:101C20005052535F4F4E2D004D004800440053006A
:101C30000A00475052535F4F4646000A00546573EE
:101C400074204D6F6465000A00437573746F6D6591
:101C500072204D6F6465000A00446F6F72204F70F0
:101C6000656E000A00446F6F7220436C6F73656489
:101C7000000A0041524D000A0044495341524D00B0
:101C80000A00534F4E000A00534F4646000A4F4485
:101C90004F3A000A4675656C3A20004E2E430045C7
:101CA0004E544552494E472050524F4752414D4D98
:101CB000494E47204D4F44452E2E2E2E0046494C6E
:101CC00045205245434549564544205355434345D5
:101CD000535346554C4C5920434845434B494E4776
:101CE00020464F522056414C494449545900454ED4
:101CF000544552494E472050524F4752414D4D494D
:101D00004E47204D4F4445204641494C2053454EB7
:101D100044205745425354415254205448454E2084
:101D200054525920544F20524550524F4752414D22
:101D300000524550524F4752414D4D494E47204663
:101D400041494C3A20434F4D504C4554452046495B
:101D50004C4520574153204E4F542052454345494E
:101D600056454400554E41424C4520544F204D416C
:101D70004B4520434F4E4E454354494F4E20544F00
:101D800020534552564552205452592041465445FD
:101D90005220534F4D4554494D4500524550524FE6
:101DA0004752414D4D494E47204641494C454420FC
:101DB00044554520544F2053455256455220434FD9
:101DC0004E4E454354494F4E20425245414B0046EA
:101DD000494C452043555252555054204F52204DA6
:101DE0004D432052454144204552524F52004649EE
:101DF0004C452049532056414C49442052455354A8
:101E0000415254494E4720464F522050524F47525C
:101E1000414D4D494E4720464C41534800554E498F
:101E200054205749544820494D4549203A20000A3A
:101E3000524550524F4752414D4D45442053554312
:101E40004345535346554C4C592057495448205606
:101E5000455253494F4E203A0056455253494F4E32
:101E60002041355F3930305F474D5F460052455065
:101E7000524F4752414D4D494E47204641494C45EE
:101E8000442044554520544F20424F4F544C4F411D
:101E900044455220454550524F4D20524541442023
:101EA0004552524F5200524550524F4752414D4DAC
:101EB000494E47204641494C45442044554520540D
:101EC0004F20424F4F544C4F4144455220434845C8
:101ED000434B53554D204552524F5200524550529C
:101EE0004F4752414D4D494E47204641494C45448C
:101EF0002044554520544F20424F4F544C4F4144AD
:101F0000455220464C4153482052454144204552B9
:101F1000524F5200424F4F544C4F41444552204E75
:101F20004F5420464F554E4400424F4F544C4F4162
:101F300044455220564552494649434154494F4E23
:101F4000204641494C4544004655454C20544142A9
:101F50004C452053544F524544004655454C20545F
:101F600041424C452053544F52494E47204552520E
:101F70004F5220434845434B204D53470020467560
:101F8000656C2056616C75652043616C6962726195
:101F900074656420666F7220766F6C756D65200ABB
:101FA000006C697472650A00776974682041444363
:101FB0002076616C75650A0057524F4E4720494E96
:101FC00050555420524553454E44204146544552A5
:101FD00020414D454E444D454E54004655454C20FC
:101FE00043414C43554C4154494F4E205354415268
:101FF000544544004655454C204D454D4F525920BF
:10200000464F524D4154544544000A544F54414C9C
:10201000203A20000A544F54414C203A20004C6191
:10202000743A20000A4C6F6E673A20000A537065BC
:1020300065643A20000A446174653A20000A5469D4
:102040006D653A20000A496D65693A20006874742C
:10205000703A2F2F6D6170732E676F6F676C652EEE
:10206000636F6D2F6D6170733F713D00475053205A
:102070004E4F5420464F554E4400414E44204C4153
:102080005354204C4154204C4F4E47204152450A56
:10209000000A4147505320494E464F2049530A00F9
:1020A0004D43433A000A4D4E433A000A4C41433AED
:1020B000000A43454C4C2049443A004750525320B3
:1020C0004E4F5420415641494C41424C45204F4EC1
:1020D0002053494D2043415244004750525320431E
:1020E0004F4E46494755524154494F4E204641496B
:1020F0004C4544205245434845434B2054484520D5
:1021000041504E2C555345524E414D452C50415354
:1021100053574F524420464F522043555252454E3A
:1021200054204E4554574F524B0047505253204372
:102130004F4E464947555245442053554343455316
:102140005346554C4C5920574954480A41504E3D2E
:10215000000A555345524E414D453D000A504153EA
:1021600053574F52443D004750525320434F4E4621
:10217000494755524154494F4E204152450A41501A
:102180004E3D000A555345524E414D453D000A50C3
:10219000415353574F52443D004572726F72207243
:1021A000656164696E672069733A200A004572723E
:1021B0006F722053657420546F203A20004F646F73
:1021C0006D657465722072656164696E67206973FC
:1021D0003A200A004F646F6D657465722053657410
:1021E00020546F203A200A004F646F6D6574657249
:1021F0002043616C63756C6174696F6E2053746FFA
:10220000707065640053657276657220495020696C
:10221000733D200A000A53657276657220506F7212
:1022200074204E6F2049733D200A00536572766515
:1022300072204950204368616E67656420746F3D69
:10224000200A000A53657276657220506F727420FE
:102250004368616E67656420746F3D200A005465B1
:102260006D703A20002043656C73697573004D539F
:10227000204953203A004E6F204D4153544552207F
:10228000434F4E46494755524544004D53205374E1
:102290006F726564203A004E53204953203A004E35
:1022A000532053746F726564203A002053494D20C7
:1022B0004348414E47454400504E53313D000A5774
:1022C00069746820416C65727420456E61626C654A
:1022D000640A000A5769746820416C65727420446E
:1022E000697361626C65640A00504E53323D000AA6
:1022F0005769746820416C65727420456E61626C28
:1023000065640A000A5769746820416C657274201C
:1023100044697361626C65640A00504E53333D0A30
:10232000000A5769746820416C65727420456E61BB
:10233000626C65640A000A5769746820416C6572B2
:10234000742044697361626C65640A00504E5334B2
:102350003D0A000A5769746820416C657274204513
:102360006E61626C65640A000A5769746820416C8A
:102370006572742044697361626C65640A004E4F33
:1023800020504E532053544F52454400504E533129
:102390003D002053544F5245442000576974682033
:1023A000416C65727420456E61626C65640A005709
:1023B00069746820416C6572742044697361626C51
:1023C00065640A00504E53323D002053544F52452D
:1023D0004420005769746820416C65727420456E12
:1023E00061626C65640A005769746820416C6572AB
:1023F000742044697361626C65640A00504E533303
:102400003D0A0053544F52454420005769746820D8
:10241000416C65727420456E61626C65640A005798
:1024200069746820416C6572742044697361626CE0
:1024300065640A00504E53343D0A0053544F5245D0
:102440004420005769746820416C65727420456EA1
:1024500061626C65640A005769746820416C65723A
:10246000742044697361626C65640A00504E533194
:102470002044656C6574656400504E533220446599
:102480006C6574656400504E53332044656C65740C
:10249000656400504E53342044656C657465640077
:1024A000534D53204E4F54204143434550544544CF
:1024B0000041544420003B0D002B43504D533A2023
:1024C00022002B393139383130303136363634004C
:1024D0002B393139383130303139393537002B39F2
:1024E0003139393930333333373336002B434D47A5
:1024F000523A001F1C1F1E1F1E1F1F1E1F1E1F30B3
:10250000002D0030002D00300030003A0030003A3D
:10251000003000204953540041542B434D49433D62
:10252000302C004F4B002C004E2E432C4E2E432CB3
:10253000002C002C002C00424C2C0042482C002B7C
:10254000434D54453A006E616E00696E660000406E
:102550007A10F35A00A0724E18090010A5D4E800B2
:1025600000E87648170000E40B54020000CA9A3BCA
:10257000000000E1F5050000809698000000404250
:102580000F000000A08601000000102700000000DE
:10259000E803000000006400000000000A000000E2
:1025A00000000100000000002C76D888DC674F088E
:1025B00023DFC1DFAE59E1B1B796E5E3E453C63A94
:1025C000E651997696E8E6C28426EB898C9B62ED0B
:1025D000407C6FFCEFBC9C9F40F2BAA56FA5F490C5
:1025E000055A2AF75C936B6CF9676DC11BFCE0E43C
:1025F0000D47FEF520E6B500D0ED902E0300943592
:1026000077050080841E080000204E0A000000C8E4
:102610000C333333330F986E12831141EF8D211435
:10262000893BE65516CFFEE6DB18D1844B381BF705
:102630007C1D901DA4BBE424203284725E228100A4
:10264000C9F124ECA1E53D27494E46494E4954596C
:102650004E414E000020410000C84200401C462070
:10266000BCBE4CCA1B0E5AAEC59D74CDCCCC3D0A27
:10267000D7233C17B7D13877CC2B329595E6241F5A
:10268000B14F0A0011241FBECFEFDFE3DEBFCDBF85
:1026900000E00CBF16E2A0E0B0E2E4E8F6E701E0FB
:1026A0000BBF02C007900D92A83EB107D9F71AE2FE
:1026B000A8EEB6E201C01D92AC3AB107E1F70E9464
:1026C000E7610C9440BB0C94DD61992787FD9095E0
:1026D0008827990F881F9927982F8827990F990F76
:1026E000E8E051E0772767FD709596958795252F4F
:1026F00030E0262337232115310509F09460550F6A
:10270000E15099F796958795552747FD509540FDDF
:1027100092609695879541FD94600895E6E074E097
:1027200020E030E0992787FD909536952795472F33
:1027300050E0482359234115510509F03460770FC3
:10274000E15099F755E041E0772767FD70953695A0
:102750002795842F90E086239723009709F0346013
:10276000440F5150A1F7C9010895E3E070E220E061
:1027700030E0992787FD909536952795472F50E0B3
:10278000482359234115510509F03460770FE15072
:1027900099F758E041E0772767FD709536952795C2
:1027A000842F90E086239723009709F03460440F2C
:1027B0005150A1F7C9010895682F772767FD7095DB
:1027C00065FD25C0F6E080E090E0E1E012C08E2FCC
:1027D00090E09C01242335232115310511F0680F69
:1027E000791FEE0FF15099F788279927861B970BD1
:1027F00008952E2F30E0A901462357234115510596
:1028000011F0820F931FEE0FF15099F70895819503
:10281000F6E060E070E0E1E0482F552747FD509575
:10282000D6CF97FD06C080FF02C080E8089580E003
:102830000895909581959F4FF6CF9C0197FD14C008
:1028400097E080E042E050E08695BA01622373236E
:102850006115710509F08068440F551F9150A1F76B
:10286000869530FD80680895309521953F4FE8CFDB
:1028700097FD1CC020E077FD1EC091FD02C080E0E6
:1028800001C080E88695213009F4806896E021E057
:1028900030E08695A901462357234115510509F0DB
:1028A0008068220F331F9150A1F70895909581956C
:1028B0009F4F21E0E0CF709561957F4FDECF97FD70
:1028C00028C0A0E077FD2AC0F4E040E450E0E0E05A
:1028D000E6959A01282339232115310509F0E0688E
:1028E000440F551FF150A1F78E2F8695A13009F4A2
:1028F000806893E021E030E08695A90146235723C4
:102900004115510509F08068220F331F9150A1F73E
:102910000895909581959F4FA1E0D4CF70956195D2
:102920007F4FD2CF97FD17C0E0E077E028E030E09E
:1029300060E06695A901482359234115510509F026
:102940006068220F331F7150A1F7862F8695E13002
:1029500009F480680895909581959F4FE1E0E5CF57
:10296000FC01E070F470AAE040E050E061E070E04B
:102970009B01282339232115310511F0460F571FDC
:10298000660F771FA150A1F7309719F05095419528
:102990005F4FCA010895DF92EF92FF920F931F934A
:1029A000CF93DF9390E1E0E8F6E0918392E0E0EAF4
:1029B000F6E0918308E010E8C82FDD27C7FDD09529
:1029C00030E1D32E42E0E42E60E070E0CB010E94C3
:1029D000702D812F90E08C239D23009719F0D092C9
:1029E000850602C0D092860660E070E0CB010E94AE
:1029F000702D22E0F22EE092A50660E070E0CB019F
:102A00000E94702DE092A60616950150E9F6C0E1ED
:102A1000C093850661E070E080E090E00E94702D38
:102A2000E0E8F6E0C283F092A50690918806F09265
:102A3000A606C093860681E094FF80E0DF91CF91E7
:102A40001F910F91FF90EF90DF900895CF93DF9348
:102A5000D0E1E0E8F6E0D183C2E0E0EAF6E0C1834D
:102A6000D093850661E070E080E090E00E94702DD8
:102A7000C093A50661E070E080E090E00E94702DB8
:102A8000D093860661E070E080E090E00E94702DB7
:102A9000C093A606DF91CF910895CF93DF93C0E155
:102AA000E0E8F6E0C183D2E0E0EAF6E0D183C0934B
:102AB000860661E070E080E090E00E94702DD09387
:102AC000A50661E070E080E090E00E94702DC09368
:102AD0008506DF91CF910895CF93DF93D82FC62F2E
:102AE00061E070E080E090E00E94702DAFDF88E947
:102AF00052DF61E070E080E090E00E94702D8D2F49
:102B00004ADF61E070E080E090E00E94702D8C2F41
:102B100042DFC3DF61E070E080E090E00E94702D52
:102B2000DF91CF91089587E060E0D6DF86E060E036
:102B3000D3DF87E061ECD0CF87E060E0CDDF86E0D7
:102B400060E1CADF87E061ECC7CF1F93CF93DF93CB
:102B500080E1E0E8F6E0828382E0E0EAF6E081836B
:102B600061E070E080E090E00E94702DD8E0C0E06D
:102B700012E01093A60660E070E0CB010E94702D79
:102B80001093A50660E070E0CB010E94702DCC0F81
:102B90008091880684FDC16060E070E0CB010E94F6
:102BA000702DD15031F7D2E0D093A60661E070E0ED
:102BB00080E090E00E94702D10E11093860661E0A5
:102BC00070E080E090E00E94702DD093A50661E057
:102BD00070E080E090E00E94702DD093A6061093E4
:102BE000860661E070E080E090E00E94702D8C2FFE
:102BF000DF91CF911F9108951F93CF93DF930F9291
:102C0000CDB7DEB7162F498321DF812FC4DE49817E
:102C1000842FC1DE1BDF812F8160BDDE96DF8983BB
:102C20003CDF89810F90DF91CF911F9108956F92C2
:102C30007F928F929F92AF92BF92CF92DF92EF924C
:102C4000FF920F931F93CF93DF9310E466247724B2
:102C5000AA24BB24C0E0D0E080E068E940E0CCDFFB
:102C6000E82E80E068E941E0C7DF082F80E068E9EE
:102C700042E0C2DFC82E8E2D9FDDC80FD91F802FE6
:102C80009BDDA80EB91E8C2D97DD680E791E1150A4
:102C900019F787E060E020DF80E261E01DDF80E27D
:102CA00062E01ADF80E068E940E2A6DF87E061E0E9
:102CB00013DF80E068E941E39FDF182F80E068E9D7
:102CC00042E39ADF882E80E068E943E395DFC82E6F
:102CD00080E068E944E390DF082F80E068E945E39D
:102CE0008BDFE82E812F682D4C2DEFDC4C018C2DD5
:102CF000602F14DD6C01802F6E2D37DD7C01C40147
:102D00002FDE8C01C6012CDE6C01C70129DE7C019F
:102D100020E430E0CE01B9010E9424B6660F771F8F
:102D2000061B170BC501B9010E9424B6660F771F59
:102D3000C61AD70AC301B9010E9424B685E190E002
:102D4000861B970B880F991FE80EF91EC80169DDD5
:102D5000A82EC80172DDC82FC801B60189DD182F61
:102D6000C601B701ACDD082FC701DCDDE82E82E229
:102D70006FEFB2DE81E36A2DAFDE82E26EEFACDE92
:102D800082E26FEFA9DE82E36C2FA6DE82E26EEFB5
:102D9000A3DE82E26FEFA0DE83E3612F9DDE82E29D
:102DA0006EEF9ADE82E26FEF97DE84E3602F94DEAF
:102DB00082E26EEF91DE82E26FEF8EDE85E36E2DB2
:102DC0008BDE82E26EEF88DEDF91CF911F910F9153
:102DD000FF90EF90DF90CF90BF90AF909F908F903B
:102DE0007F906F900895E0E8F6E080E1818382E0D3
:102DF000A0EAB6E011968C93119710929406109267
:102E0000B10690E2928381E0818792878093950654
:102E1000089587E060E060DE86E060E05DDE88E0E7
:102E20006BE35ADE87E061EC57DE86CE0C94BA2D58
:102E30000895E0EAF6E080E4828392E09187828759
:102E400083E18093B60608951F920F920FB60F92FA
:102E50000BB60F9211246F927F928F929F92AF9236
:102E6000BF92CF92DF92EF92FF920F931F932F9317
:102E70003F934F935F936F937F938F939F93AF9302
:102E8000BF93CF93DF93EF93FF93E0E8F6E01186D3
:102E90008091F027803809F016C18091602A84FD66
:102EA00012C1809103288F5F8093032880910328AB
:102EB000853610F01092032880E068E940E09CDE3F
:102EC000C82F80E068E941E097DE082F80E068E9DC
:102ED00042E092DEC82E8C2F6FDCEC01802F6CDC80
:102EE0008C018C2D69DC3C01B301882777FD80952E
:102EF000982F0E9462B04B015C016091E8267091AE
:102F0000E926882777FD8095982F0E9462B06B0193
:102F10007C012091DA263091DB264091DC2650910D
:102F2000DD260E94FFAE9B01AC01C501B4010E94E9
:102F300070B118160CF48BC02091DA263091DB2684
:102F40004091DC265091DD26C701B6010E94FEAEFD
:102F50009B01AC01C501B4010E94C5AF87FD77C0DC
:102F6000B801882777FD8095982F0E9462B04B01A9
:102F70005C016091EA267091EB26882777FD8095A9
:102F8000982F0E9462B06B017C012091DA2630916B
:102F9000DB264091DC265091DD260E94FFAE9B018E
:102FA000AC01C501B4010E9470B118160CF44FC0F9
:102FB0002091DA263091DB264091DC265091DD26E7
:102FC000C701B6010E94FEAE9B01AC01C501B40170
:102FD0000E94C5AF87FD3BC0BE01882777FD809565
:102FE000982F0E9462B04B015C016091EC267091B9
:102FF000ED26882777FD8095982F0E9462B06B019F
:103000007C012091DA263091DB264091DC2650911C
:10301000DD260E94FFAE9B01AC01C501B4010E94F8
:1030200070B11816A4F02091DA263091DB26409179
:10303000DC265091DD26C701B6010E94FEAE9B0141
:10304000AC01C501B4010E94C5AF87FF04C08091E7
:1030500004288F5F07C080910428882329F080917D
:103060000428815080930428C093EC26D093ED2649
:103070000093EA261093EB266092E8267092E926E8
:103080008091612A87FD0BC080E068E943E0B4DDF0
:1030900087FF05C08091612A80688093612A80E063
:1030A00068E943E0A9DD80910428833064F0109240
:1030B000DE2610920128109202281092FF2710920B
:1030C00000281092042881E0E0E8F6E08187FF9173
:1030D000EF91DF91CF91BF91AF919F918F917F91B0
:1030E0006F915F914F913F912F911F910F91FF90A1
:1030F000EF90DF90CF90BF90AF909F908F907F9098
:103100006F900F900BBE0F900FBE0F901F901895F1
:103110001F920F920FB60F920BB60F9211242F939E
:103120003F934F935F936F937F938F939F93AF934F
:10313000BF93CF93DF93EF93FF93E0EAF6E011861E
:1031400080915C2A86FD42C08091622A81FD3EC04A
:103150008091622A82FF07C039C0219681E090E009
:103160000E94852D02C0C0E0D0E08091A80686FDB7
:1031700009C08FE1C034D80749F08091602A84FFEC
:10318000ECCF0CC08FE1C034D80741F48091F02718
:10319000803841F48091622A826011C081E0CC3293
:1031A000D80778F08AE292E00E943BAD803871F453
:1031B0008091F027803851F48091622A8460809356
:1031C000622A80915C2A806480935C2A82E0E0EA33
:1031D000F6E08187FF91EF91DF91CF91BF91AF91A1
:1031E0009F918F917F916F915F914F913F912F911F
:1031F0000F900BBE0F900FBE0F901F901895FF926F
:103200000F931F93CF93DF93CDB7DEB72A97CDBF30
:10321000DEBF8AE0F82E8E010F5F1F4FD801EF2D21
:103220001D92EA95E9F780917D2890917E28A091E2
:103230007F28B09180282DB73EB7285030402DBF51
:103240003EBF4DB75EB74F5F5F4FEDB7FEB701832F
:10325000128320E030E2FA01228333838483958352
:10326000A683B7830E940FB92091912830919228AC
:103270008DB79EB708968DBF9EBFC901880F991F55
:1032800073E0220F331F7A95E1F7820F931F88575F
:103290009A4FB80143E050E00E9448ADD801EF2DAD
:1032A0001D92EA95E9F78091812890918228A0915A
:1032B0008328B09184282DB73EB7285030402DBFC9
:1032C0003EBF4DB75EB74F5F5F4FEDB7FEB70183AF
:1032D000128326E030E2FA012283338384839583CC
:1032E000A683B7830E940FB920919128309192282C
:1032F0008DB79EB708968DBF9EBFC901880F991FD5
:10330000220F331F220F331F220F331F820F931FF1
:1033100085579A4FB80147E050E00E9448ADD80168
:103320001D92FA94E9F7209191283091922800D0CB
:1033300000D0EDB7FEB73196ADB7BEB711960D937D
:103340001C9312978CE090E28283938324833583CD
:103350000E940FB9EDB7FEB73696EDBFFEBF80E510
:1033600096E0B80142E050E00E9448AD2A96CDBFF9
:10337000DEBFDF91CF911F910F91FF900895E0EA9A
:10338000F9E093818295807F9F7C892B83830895C8
:10339000CF93DF93809178008093E5278FEF809320
:1033A00078000E9401AC8FB780688FBF0E941C25F7
:1033B0000E9449250E94906687EF96E00E943BADEF
:1033C0008A3AD1F0CEE9D8E2CE0160E070E040EA7E
:1033D00050E00E94D3B787EF96E06AEA0E94E1AC22
:1033E000CE01BE010E94CA2D8FE090E26DE170E235
:1033F0000E94CA2D0E9454A70E94E5590E94995B21
:103400008091612A84608093612A0E94B34381E0A5
:103410008093050680915D2A8B7F80935D2A0E94B0
:10342000906607DD0E94CD2ADEDC01DCF2DCDF9154
:10343000CF910895CF93DF93CDB7DEB72597CDBF5A
:10344000DEBFFE01319685E0DF011D928A95E9F726
:1034500080915C2A81FF09C080E290E08093872AF6
:103460009093882A83E60E94106A8FEF9FE064EEB3
:1034700070E044E050E09E012F5F3F4F0E943F68A4
:103480008C81853511F486E013C08B3B11F487E005
:103490000FC08C3C11F488E00BC08D3D11F489E025
:1034A00007C08A3A11F48AE003C08E3E79F48BE0BB
:1034B0008093D22788E290E08093872A9093882A8D
:1034C00083E60E94106A1C820E9417648FEF9FE0BF
:1034D00064EE70E044E050E09E012F5F3F4F0E9499
:1034E00020682596CDBFDEBFDF91CF910895CF93A1
:1034F000DF9380915D2A81FF56C00E94202E863482
:1035000011F483E057C0C0EADFE08EE998E26CED89
:1035100073E00E94A7B78EE998E260E170E00E9434
:1035200030568EE191E066E070E041E050E00E94AC
:1035300080560E94E764833511F18634C1F18234EC
:1035400061F180915C2A86FF11C080915C2A8F7B9B
:1035500080935C2A8091622A88608093622A0E940C
:103560000F9D8091622A877F8093622A219719F0AC
:103570000E94E926CACF8FB78F778FBFFFCF1092F7
:10358000D22788E290E08093872A9093882A83E666
:103590000E94106A0E94156018C08091602A88609D
:1035A0008093602A12C00E94176481E003C00E94C9
:1035B000176482E08093D22788E290E08093872A84
:1035C0009093882A83E60E94106ADF91CF91089534
:1035D000CF93DF938091622A8E7F8093622A8091BD
:1035E0005D2A86FF13C00E9416A780E280936506BD
:1035F000C4EFD1E081E090E00E94BA2D2197D1F78D
:1036000080E2809366068EE290E028C00E94F1A6D8
:1036100080E280936506C4EFD1E081E090E00E94F3
:10362000BA2D2197D1F780E280936606C4EFD1E0EE
:1036300081E090E00E94BA2D2197D1F780E280933B
:103640006506C4EFD1E081E090E00E94BA2D219799
:10365000D1F780E2809366068DE290E08093872A1E
:103660009093882A83E60E94106ADF91CF91089593
:103670002F923F924F925F926F927F928F929F9282
:10368000AF92BF92CF92DF92EF92FF920F931F9370
:10369000CF93DF93CDB7DEB7A797CDBFDEBF82E074
:1036A00090E08093F1279093F2270E940F5985E1D3
:1036B00090E065E070E042E050E00E9480568EE9C4
:1036C00098E26DEE73E00E94B9B7009761F48091C3
:1036D000EE268F5F8093EE2682303CF01092EE262D
:1036E0000E94E55902C01092EE2680E090E047DE8D
:1036F00080EC91E00E943BAD803809F0ADC0809134
:103700009D2A80FFA9C08BE08E01095E1F4FF80142
:10371000982F11929A95E9F79CE0E92EF12CEC0E86
:10372000FD1EF701982F11929A95E9F76E01089402
:10373000C11CD11CF60111928A95E9F78BEB91E03F
:10374000B80145E050E00E9448AD83E991E0B7013F
:103750004AE050E00E9448AD8DE991E0B6014AE0B0
:1037600050E00E9448ADC8010E9470B68EA39FA38E
:10377000C7010E946DB66AA37BA38CA39DA3C6015B
:103780000E946DB64B015C018BEF99E20E946DB611
:103790007B018C018BE19AE20E946DB62B013C010A
:1037A0006AA17BA18CA19DA120E030E0A9010E942B
:1037B000C5AF882309F450C0C501B40120E030E052
:1037C000A9010E94C5AF882309F446C0C801B7010A
:1037D00020E030E0A9010E94C5AF8823E9F1C301D0
:1037E000B20120E030E0A9010E94C5AF8823A1F119
:1037F0002EA03FA06AA17BA18CA19DA1A50194014F
:10380000630152010E94A54D0E9434B08B019C01BE
:1038100081E090E0B4DD2016310648F48091EF2677
:10382000882329F481E08093EF2682E50AC00215FF
:10383000130590F48091EF26813071F41092EF26F9
:1038400082E78093AA2789E490E08093872A909367
:10385000882A83E60E94106A81E090E090DDA796B6
:10386000CDBFDEBFDF91CF911F910F91FF90EF9001
:10387000DF90CF90BF90AF909F908F907F906F9090
:103880005F904F903F902F900895CF92DF92EF92EC
:10389000FF921F93CF93DF93CDB7DEB76A97CDBF6B
:1038A000DEBFFE0131968AE1DF011D928A95E9F7BC
:1038B0008BE292E00E943BAD803411F00E943C40CC
:1038C0008091F0268A3024F00E94E5591092F0266B
:1038D0008091622A88608093622A0E940F9D809165
:1038E000622A877F8093622A84E190E08093F127A7
:1038F0009093F2270E940F5989E190E062E070E016
:1039000042E050E00E9480560E941A2E8CEB92E01A
:1039100063E070E08BDA83E190E08093F12790938D
:10392000F2270E940F5989E190E062E070E042E0E6
:1039300050E00E9480562EE9E22E28E2F22EC701C6
:1039400069EF73E00E94B9B7009709F4C1C184E63A
:1039500090E063E070E06ADA0E94082E8AE090E06E
:1039600062E070E048E050E00E948056C70162E0EB
:1039700074E00E94B9B7009709F497C11092EA2742
:103980001092EB27C70165E074E00E94A7B71AE127
:103990006E010894C11CD11CF601212F11922A95A9
:1039A000E9F78DE390E0B60149E150E00E9448ADAF
:1039B000C701B6010E94DAB7C70169E174E00E944D
:1039C00093B7D7010D900020E9F7BD016150704019
:1039D0006E197F09C7010E9430568AE090E062E0CC
:1039E00070E048E050E00E948056C7016CE174E04E
:1039F0000E94B9B7009709F46BC184E690E063E0D8
:103A000070E014DAC7016FE174E00E94A7B7F60115
:103A100011921A95E9F78DE390E0B60149E150E083
:103A20000E9448ADC701B6010E94DAB7C70169E23A
:103A300074E00E9493B710E1D601E12F1D92EA9540
:103A4000E9F78BE590E0B6014FE050E00E9448AD09
:103A5000C701B6010E94DAB7C7016DE274E00E94A7
:103A600093B785E1D6011D928A95E9F789E790E041
:103A7000B60144E150E00E9448ADC701B6010E9482
:103A8000DAB7C70161E374E00E9493B7F7010190D0
:103A90000020E9F7BF01615070406E197F09C7012E
:103AA0000E9430568AE090E062E070E046E050E02C
:103AB0000E948056C70164E374E00E94B9B7009782
:103AC00009F406C184E690E063E070E0AFD90E949B
:103AD0000E2E8AE090E062E070E044E150E00E9447
:103AE0008056C70167E374E00E94B9B7009709F4F4
:103AF0009BC01092EC271092ED2784E690E00E9484
:103B0000BA2D0E94142E8DE090E062E070E046E055
:103B100050E00E94805684E690E063E070E086D931
:103B20008091F0278038C1F5C7016AE374E00E94F4
:103B3000A7B7D6011D921A95E9F788E990E0B6017A
:103B40004FE050E00E9448ADC701B6010E94DAB7CD
:103B5000C7016EE474E00E9493B786E0F60111920B
:103B60008A95E9F787EA90E0B60145E050E00E94C7
:103B700048ADC701B6010E94DAB7C70162E574E03B
:103B80000E9493B7D7010D900020E9F7BD01615065
:103B900070406E197F090EC0C70165E574E00E9490
:103BA000A7B7F70101900020E9F7BF01615070400D
:103BB0006E597842C7010E94305689E190E06BE06F
:103BC00070E04EE150E00E9480568EE998E261E894
:103BD00074E00E94B9B7009709F47AC01092E82700
:103BE0001092E92780915D2A877F80935D2A88EC77
:103BF00090E063E070E01AD989E292E00E943BAD68
:103C0000803809F07BC08091F027803809F076C0B9
:103C10008091662A81FD72C00E94BE3180ED97E0DE
:103C200063E070E003D96AC08091EC279091ED27A2
:103C300001968093EC279093ED27F7E281319F075F
:103C400020F01092EC271092ED270E94B0588EE1E0
:103C500090E062E070E042E050E00E9480568EE921
:103C600098E26CE874E00E94B9B7009789F16CE2C1
:103C700070E00E94E5B7009759F1DC0111968C9134
:103C80001197813369F08091EE279091EF2701968B
:103C90008093EE279093EF27B7E281319B07C0F026
:103CA0001092EE271092EF2713C08091EA2790918F
:103CB000EB2701968093EA279093EB27E7E2813187
:103CC0009E0730F085E090E08093EA279093EB2701
:103CD0008091E8279091E92701968093E8279093B7
:103CE000E9272091F0262F5F2093F026F7E281311B
:103CF0009F0720F01092E8271092E9276A96CDBF1F
:103D0000DEBFDF91CF911F91FF90EF90DF90CF90BA
:103D100008958F929F92AF92BF92CF92DF92EF92CF
:103D20000F931F93CF93DF93CDB7DEB72B97CDBF04
:103D3000DEBFFE01319687E0DF011D928A95E9F72B
:103D40008091F1268F5F8093F12685361CF086E006
:103D50008093F1268091F12686300CF485C180E0B5
:103D600090E00DDB80919D2A80FF7BC14091EB2983
:103D700040518091EA29880F982F990F990F980F39
:103D8000490F6091ED2960518091EC29880F982F9F
:103D9000990F990F980F690F3091EF293051809149
:103DA000EE29880F982F990F990F980F390F2091AE
:103DB000462A20518091452A880F982F990F990FF4
:103DC000980F290F0091482A01518091472A880FA6
:103DD000982F990F990F980F090F10914A2A105197
:103DE0008091492A880F982F990F990F980F190FD2
:103DF00081E090E02B873A8748876987C0DA3A8567
:103E0000832F698548852B85E12E0E9481A24B0175
:103E10005C011092F12680E691E00E943BAD803873
:103E200009F05BC06E010894C11CD11C87E0F6014B
:103E300011928A95E9F781E691E0B60146E050E0FB
:103E40000E9448AD2E8120518D81880F982F990FA7
:103E5000990F980F290F0C8101518B81880F982F92
:103E6000990F990F980F090F9A8190518981880FA6
:103E7000382F330F330F380F930F80E060E040E0AE
:103E8000E92E0E9481A2DC01CB0188159905AA05C3
:103E9000BB0518F588E490E08093872A9093882AE0
:103EA00083E60E94106A8091F2268F5F8093F2264B
:103EB00084309CF01092F22686E0D6011D928A95FD
:103EC000E9F781E691E0B60146E050E00E946AAD74
:103ED00080E691E060E00E94E1AC87E691E00E941C
:103EE0003BAD803809F05BC06E010894C11CD11C49
:103EF00087E0F60111928A95E9F788E691E0B6012C
:103F000046E050E00E9448AD2E8120518D81880FFF
:103F1000982F990F990F980F290F0C8101518B81C0
:103F2000880F982F990F990F980F090F9A81905128
:103F30008981880F382F330F330F380F930F80E0AC
:103F400060E040E0E92E0E9481A2DC01CB018815EF
:103F50009905AA05BB0518F587E490E08093872AA8
:103F60009093882A83E60E94106A8091F3268F5FDF
:103F70008093F32684309CF01092F32686E0D601DD
:103F80001D928A95E9F788E691E0B60146E050E097
:103F90000E946AAD87E691E060E00E94E1AC8EE6A7
:103FA00091E00E943BAD803809F05BC06E0108943F
:103FB000C11CD11C87E0F60111928A95E9F78FE6C2
:103FC00091E0B60146E050E00E9448AD2E812051BC
:103FD0008D81880F982F990F990F980F290F0C81B9
:103FE00001518B81880F982F990F990F980F090F06
:103FF0009A8190518981880F382F330F330F380FF2
:10400000930F80E060E040E0E92E0E9481A2DC0195
:10401000CB0188159905AA05BB0518F586E490E043
:104020008093872A9093882A83E60E94106A809161
:10403000F4268F5F8093F42684309CF01092F4264F
:1040400086E0D6011D928A95E9F78FE691E0B601E8
:1040500046E050E00E946AAD8EE691E060E00E948A
:10406000E1AC81E090E08BD90E94535A2B96CDBFF2
:10407000DEBFDF91CF911F910F91EF90DF90CF9036
:10408000BF90AF909F908F90089580915D2A82FF9E
:1040900014C00E94213380915D2A87FF44C0809123
:1040A0005D2A8F7780935D2A1092E3271092E42790
:1040B0001092E1271092E227089580915D2A82FDF7
:1040C00032C00E94213380915D2A87FD0DC080910E
:1040D0005D2A806880935D2A1092E3271092E4277E
:1040E0001092E1271092E22780915E2A80FF1BC088
:1040F0000E94B34380E69AEE65E070E00E941617D6
:1041000080E69AEE65E070E00E94161781E08093E9
:10411000050680915D2A8B7F80935D2A80915E2ABF
:104120008E7F80935E2A0895CF92DF92EF92FF9266
:1041300080E090E024D980919D2A80FF07C08BE326
:104140009AE20E946DB66B017C010AC00F2EF0E06E
:10415000CF2EF0E0DF2EF0E8EF2EFFE5FF2EF02D62
:1041600081E090E00CD9C701B60120E030E040E8E2
:104170005FE50E94C5AF8823E9F1C701B60120E0E1
:1041800030E0A9010E94C5AF9091F526882311F077
:104190009F5F01C091509093F5268091F52685315F
:1041A0004CF1C090DD27D090DE27E090DF27F09023
:1041B000E0276091AB277091AC278091AD2790915B
:1041C000AE272DEC3CEC4CE45EE30E94FFAE9B017D
:1041D000AC01C701B6010E9470B118165CF41092D0
:1041E000F52684E590E08093872A9093882A83E6D9
:1041F0000E94106AFF90EF90DF90CF900895EF92A9
:10420000FF920F931F93CF93DF93CDB7DEB76497E1
:10421000CDBFDEBF00E816E0F80111860E949315BD
:1042200082E390E00E94BA2D81E0F80181870E942C
:104230009C1580915D2A80FF0EC080915D2A8E7F43
:1042400080935D2A8BE090E08093872A9093882A60
:1042500083E60E94106A8091612A85FF11C08EE674
:104260008093AA278091612A8F7D8093612A89E4B7
:1042700090E08093872A9093882A83E60E94106AB0
:104280008091612A86FF11C08EE48093AA278091D5
:10429000612A8F7B8093612A89E490E08093872A4A
:1042A0009093882A83E60E94106A80915E2A81FD9D
:1042B00004C080915D2A86FF2FC18091642A82FF0D
:1042C00081C080915E2A8F7780935E2A8091642AD4
:1042D0008B7F8093642A8EE591E00E943BAD80380D
:1042E00009F069C080E090E04AD880919D2A4BE0B7
:1042F000E42EF12CEC0EFD1E8E010F5F1F4F80FF90
:104300002AC08AE0F701982F11929A95E9F7F801EF
:1043100011928A95E9F7C7016BEF79E249E050E025
:104320000E941EB8C8016BE17AE249E050E00E94A9
:104330001EB881E090E023D8C701B8010E94333253
:104340008EE998E263E974E00E94B9B7009779F1C9
:10435000C701B8012AC08AE0F801982F11929A95F6
:10436000E9F7F70111928A95E9F7C8016AE07AE264
:1043700049E050E00E941EB8C7016AE27AE249E0D3
:1043800050E00E941EB881E090E00E94BF19C80171
:10439000B7010E9433328EE998E26DE974E00E9421
:1043A000B9B7009721F0C801B7010E94723781E0C8
:1043B00090E00E94BF191092872A1092882A83E603
:1043C0000E94106A8091652A82FF85C080915E2AD2
:1043D0008F7780935E2A8091652A8B7F8093652AF0
:1043E0008EE591E00E943BAD803809F06BC080E023
:1043F00090E00E94BF1980919D2A3BE0E32EF12CB2
:10440000EC0EFD1E8E010F5F1F4F80FF2BC08AE058
:10441000F701982F11929A95E9F7F80111928A9570
:10442000E9F7C7016BEF79E249E050E00E941EB85E
:10443000C8016BE17AE249E050E00E941EB881E0D9
:1044400090E00E94BF19C701B8010E9433328EE983
:1044500098E267EA74E00E94B9B7009779F1C70162
:10446000B8012AC08AE0F801982F11929A95E9F7CD
:10447000F70111928A95E9F7C8016AE07AE249E00A
:1044800050E00E941EB8C7016AE27AE249E050E0BB
:104490000E941EB881E090E00E94BF19C801B701D8
:1044A0000E9433328EE998E261EB74E00E94B9B762
:1044B000009721F0C801B7010E94723781E090E0B7
:1044C0000E94BF1981E090E08093872A9093882A08
:1044D00083E60E94106A8091642A81FF05C0809162
:1044E000642A8D7F8093642A8091652A81FF0EC0A3
:1044F0008091652A8D7F8093652A89E290E0809380
:10450000872A9093882A83E60E94106A80915E2A07
:104510008F7780935E2A19C080915E2A8F7780936F
:104520005E2A8091642A8D7F8093642A8091652A17
:104530008D7F8093652A8091642A8B7F8093642A83
:104540008091652A8B7F8093652A8091642A84FFFD
:1045500005C08091642A8F7E8093642A8091652AA9
:1045600084FF0EC08091652A8F7E8093652A84E443
:1045700090E08093872A9093882A83E60E94106AAD
:104580008091652A80FF05C08091652A8E7F809387
:10459000652A8091662A80FF0EC08091662A8E7FF0
:1045A0008093662A8EE490E08093872A9093882AED
:1045B00083E60E94106A82E596E00E943BAD803857
:1045C00009F0A9C08091642A83FF11C08091642AF8
:1045D000877F8093642A83E08093AA2780E590E018
:1045E0008093872A9093882A83E60E94106A80919C
:1045F000652A83FF11C08091652A877F8093652A91
:1046000083E08093AA278FE490E08093872A909399
:10461000882A83E60E94106A8091642A85FF11C06F
:104620008091642A8F7D8093642A85E08093AA27F5
:1046300080E590E08093872A9093882A83E60E9401
:10464000106A8091652A85FF11C08091652A8F7D4F
:104650008093652A85E08093AA278FE490E0809379
:10466000872A9093882A83E60E94106A8091642AA0
:1046700086FF11C08091642A8F7B8093642A86E034
:104680008093AA2780E590E08093872A9093882AD8
:1046900083E60E94106A8091652A86FF11C080918E
:1046A000652A8F7B8093652A86E08093AA278FE412
:1046B00090E08093872A9093882A83E60E94106A6C
:1046C0008091642A87FF11C08091642A8F7780933C
:1046D000642A87E08093AA2780E590E08093872A68
:1046E0009093882A83E60E94106A8091652A87FF4A
:1046F0003FC08091652A8F778093652A87E08093F9
:10470000AA278FE490E08093872A9093882A83E6F3
:104710000E94106A2DC080915E2A8F7780935E2A56
:104720008091642A877F8093642A8091652A877F9D
:104730008093652A8091642A8F7D8093642A80917A
:10474000652A8F7D8093652A8091642A8F7B809370
:10475000642A8091652A8F7B8093652A8091642AE0
:104760008F778093642A8091652A8F778093652A5A
:104770008091612A87FF14C083EC91E00E943BADD9
:10478000803871F48091612A8F778093612A8DE05F
:1047900090E08093872A9093882A83E60E94106A8B
:1047A00080915C2A85FF43C080915C2A8F7D809335
:1047B0005C2A8091622A88608093622A0E940F9D01
:1047C0008091622A877F8093622A0E94381BA1DA37
:1047D0000E94CBA90E9467A90E9400598EE190E037
:1047E00064E070E044E050E00E9480568EE998E278
:1047F0006BEB74E00E94B9B7FC010097B1F0109226
:1048000098281092992810929A2810929B288681B5
:104810008C3259F0882349F08093982887818C3214
:1048200021F0882311F0809399280E94FC43809105
:104830005E2A84FD04C080915E2A85FF09C081E460
:1048400090E08093872A9093882A83E60E94106ADA
:1048500080915D2A84FF26C08091DE26882361F442
:1048600080915D2A82FD08C080915D2A84608093DA
:104870005D2A0E94B34321C08091DE268823E9F09F
:1048800080915D2A82FF19C080915D2A8B7F809381
:104890005D2A81E08093050680919D2A8E7F80931A
:1048A0009D2A0BC080915D2A82FD07C00E94B34300
:1048B00080915D2A846080935D2A6496CDBFDEBFBF
:1048C000DF91CF911F910F91FF90EF90089580910C
:1048D0005C2A80FF07C00E941A1A80915C2A8E7F92
:1048E00080935C2A80915D2A85FF0EC080915D2AAD
:1048F0008F7D80935D2A82E190E08093872A909358
:10490000882A83E60E94106A8091602A83FF07C08C
:104910008091602A877F8093602A0E94771A809115
:10492000622A80FF02C00E94E81A8091622A87FFF3
:1049300006C08091622A8F778093622A60DC809122
:10494000632A82FF0BC08091DE26882339F482EC33
:1049500091E00E943BAD803809F4E6CB0895AB01AD
:10496000282F26952695269530E0205D3F4F8770AD
:1049700061E070E002C0660F771F8A95E2F7C90117
:1049800075E0880F991F7A95E1F70C9462ACE0E02E
:10499000F8E080E593EC86A397A38081807F856013
:1049A00080838681836086830895CF93DF9383E23B
:1049B00060E073E0D4DF82E260E070E0D0DF8BE1A2
:1049C00060E073E0CCDF8AE160E070E0C8DF83E1A3
:1049D00060E073E0C4DF82E160E070E0C0DF0E946D
:1049E0003DACA89580ED97E00E94BA2DCDEBD6E2C4
:1049F00080EA99E0BE010E94D2AEE0EAF9E083814C
:104A00008F7C8061838380EA9AE0BE010E94D2AEEF
:104A1000E0EAFAE083818F7C8062838380EA98E019
:104A2000BE010E94D2AEE0EAF8E083818F7C806212
:104A30008383DF91CF91089585E08093010688EF0D
:104A40008093020680EC8093210686E08093220604
:104A500081E88093410680E28093610680E980933B
:104A6000810681E08093820683E88093A10680E43A
:104A70008093A2069ADF8BDFE0EAF0E0828181601A
:104A8000828382818260828382818460828378943F
:104A9000089580915C2A816080935C2A80915C2AD1
:104AA0008D7F80935C2A80915C2A8B7F80935C2A27
:104AB00080915C2A877F80935C2A80915C2A8F7E1C
:104AC00080935C2A8091632A8E7F8093632A8091F1
:104AD000622A8F7E8093622A80915C2A8062809312
:104AE0005C2A8091622A877F8093622A80915C2A67
:104AF0008F7B80935C2A80915C2A8F7780935C2ADD
:104B000080915D2A8E7F80935D2A80915D2A8D7FC2
:104B100080935D2A80915D2A8B7F80935D2A8091AE
:104B20005D2A886080935D2A80915D2A8F7E8093C4
:104B30005D2A8091622A8F7B8093622A80915D2A10
:104B40008F7D80935D2A80915D2A8F7B80935D2A83
:104B500080915D2A8F7780935D2A80915E2A8E7F77
:104B600080935E2A80915E2A8D7F80935E2A809159
:104B70005E2A8B7F80935E2A80915E2A877F809356
:104B80005E2A80915E2A8F7E80935E2A80915E2AC3
:104B90008F7D80935E2A80915E2A8F7B80935E2A30
:104BA00080915E2A8F7780935E2A80915F2A8E7F24
:104BB00080935F2A80915F2A8D7F80935F2A809106
:104BC0005F2A8B7F80935F2A80915F2A877F809303
:104BD0005F2A80915F2A8F7E80935F2A80915F2A6F
:104BE0008F7D80935F2A80915F2A8F7B80935F2ADD
:104BF00080915F2A8F7780935F2A8091602A8E7FD1
:104C00008093602A8091602A8D7F8093602A8091B2
:104C1000602A8B7F8093602A8091602A877F8093AF
:104C2000602A8091602A8F7E8093602A8091602A1A
:104C300080628093602A8091602A8F7B8093602AB3
:104C40008091602A8F778093602A8091612A8E7F7D
:104C50008093612A8091662A8D7F8093662A809155
:104C6000612A8D7F8093612A8091612A877F80935A
:104C7000612A8091612A8F7E8093612A8091612AC6
:104C80008F7D8093612A8091612A8F7B8093612A36
:104C90008091612A8F778093612A8091622A8E7F2A
:104CA0008093622A8091622A8D7F8093622A80910C
:104CB000622A8B7F8093622A8091622A8F77809309
:104CC000622A8091622A8F7D8093622A8091662A6F
:104CD0008B7F8093662A8091632A8D7F8093632ADD
:104CE0008091632A8B7F8093632A8091632A877FD8
:104CF0008093632A8091632A8F7E8093632A8091B8
:104D0000632A8F7D8093632A8091632A8F7B8093AF
:104D1000632A8091632A8F778093632A8091642A23
:104D20008E7F8093642A8091642A8D7F8093642A89
:104D30008091642A8B7F8093642A8091642A877F84
:104D40008093642A8091642A8F7E8093642A809164
:104D5000642A8F7D8093642A8091642A8F7B80935C
:104D6000642A8091642A8F778093642A8091652ACF
:104D70008E7F8093652A8091652A8D7F8093652A36
:104D80008091652A8B7F8093652A8091652A877F31
:104D90008093652A8091652A8F7E8093652A809111
:104DA000652A8F7D8093652A8091652A8F7B809309
:104DB000652A8091652A8F778093652A8091662A7B
:104DC0008E7F8093662A8091612A8B7F8093612AEF
:104DD0000895A89588E592E08093D6269093D726EB
:104DE0000895CF93DF93CEE9D8E2CE0160E070E082
:104DF0004AE050E00E94D3B788E895E0BE0143E066
:104E000050E00E9448ADCE010E9470B68093052804
:104E100090930628CE0160E070E04AE050E00E94E6
:104E2000D3B782E995E0BE0143E050E00E9448AD6F
:104E3000CE010E9470B68093072890930828CE0177
:104E400060E070E04AE050E00E94D3B78CE995E062
:104E5000BE0143E050E00E9448ADCE010E9470B612
:104E60008093092890930A28CE0160E070E04AE020
:104E700050E00E94D3B786EA95E0BE0143E050E0DF
:104E80000E9448ADCE010E9470B680930B2890938B
:104E90000C28CE0160E070E04AE050E00E94D3B7F9
:104EA00080EB95E0BE0143E050E00E9448ADCE01AA
:104EB0000E9470B680930D2890930E28CE0160E07A
:104EC00070E04AE050E00E94D3B78AEB95E0BE0163
:104ED00043E050E00E9448ADCE010E9470B680933E
:104EE0000F2890931028CE0160E070E04AE050E077
:104EF0000E94D3B784EC95E0BE0143E050E00E94ED
:104F000048ADCE010E9470B680931128909312286C
:104F1000CE0160E070E04AE050E00E94D3B78EEC32
:104F200095E0BE0143E050E00E9448ADCE010E94F2
:104F300070B68093132890931428CE0160E070E03F
:104F40004AE050E00E94D3B788ED95E0BE0143E00F
:104F500050E00E9448ADCE010E9470B680931528A3
:104F600090931628CE0160E070E04AE050E00E9485
:104F7000D3B782EE95E0BE0143E050E00E9448AD19
:104F8000CE010E9470B68093172890931828CE0106
:104F900060E070E04AE050E00E94D3B78CEE95E00C
:104FA000BE0143E050E00E9448ADCE010E9470B6C1
:104FB0008093192890931A28CE0160E070E04AE0AF
:104FC00050E00E94D3B786EF95E0BE0143E050E089
:104FD0000E9448ADCE010E9470B680931B2890932A
:104FE0001C28CE0160E070E04AE050E00E94D3B798
:104FF00080E096E0BE0143E050E00E9448ADCE0163
:105000000E9470B680931D2890931E28CE0160E008
:1050100070E04AE050E00E94D3B78AE096E0BE011B
:1050200043E050E00E9448ADCE010E9470B68093EC
:105030001F2890932028CE0160E070E04AE050E005
:105040000E94D3B784E196E0BE0143E050E00E94A5
:1050500048ADCE010E9470B68093212890932228FB
:10506000CE0160E070E04AE050E00E94D3B78EE1EC
:1050700096E0BE0143E050E00E9448ADCE010E94A0
:1050800070B68093232890932428CE0160E070E0CE
:105090004AE050E00E94D3B788E296E0BE0143E0C8
:1050A00050E00E9448ADCE010E9470B68093252842
:1050B00090932628CE0160E070E04AE050E00E9424
:1050C000D3B782E396E0BE0143E050E00E9448ADD2
:1050D000CE010E9470B68093272890932828CE0195
:1050E00060E070E04AE050E00E94D3B78CE396E0C5
:1050F000BE0143E050E00E9448ADCE010E9470B670
:105100008093292890932A28CE0160E070E04AE03D
:1051100050E00E94D3B786E496E0BE0143E050E041
:105120000E9448ADCE010E9470B680932B289093C8
:105130002C28CE0160E070E04AE050E00E94D3B736
:105140008BE895E0BE0147E050E00E9448ADCE01FB
:105150000E946DB6DC01CB0180932D2890932E2800
:10516000A0932F28B0933028CE0160E070E04AE091
:1051700050E00E94D3B785E995E0BE0147E050E0DA
:105180000E9448ADCE010E946DB6DC01CB01809338
:10519000312890933228A0933328B0933428CE013D
:1051A00060E070E04AE050E00E94D3B78FE995E0FC
:1051B000BE0147E050E00E9448ADCE010E946DB6AE
:1051C000DC01CB018093352890933628A0933728B3
:1051D000B0933828CE0160E070E04AE050E00E94D1
:1051E000D3B789EA95E0BE0147E050E00E9448ADA0
:1051F000CE010E946DB6DC01CB01809339289093DB
:105200003A28A0933B28B0933C28CE0160E070E0A0
:105210004AE050E00E94D3B783EB95E0BE0147E03F
:1052200050E00E9448ADCE010E946DB6DC01CB017A
:1052300080933D2890933E28A0933F28B093402828
:10524000CE0160E070E04AE050E00E94D3B78DEB01
:1052500095E0BE0147E050E00E9448ADCE010E94BB
:105260006DB6DC01CB018093412890934228A09336
:105270004328B0934428CE0160E070E04AE050E05B
:105280000E94D3B787EC95E0BE0147E050E00E9452
:1052900048ADCE010E946DB6DC01CB01809345285C
:1052A00090934628A0934728B0934828CE0160E009
:1052B00070E04AE050E00E94D3B781ED95E0BE0176
:1052C00047E050E00E9448ADCE010E946DB6DC017F
:1052D000CB018093492890934A28A0934B28B09300
:1052E0004C28CE0160E070E04AE050E00E94D3B765
:1052F0008BED95E0BE0147E050E00E9448ADCE0145
:105300000E946DB6DC01CB0180934D2890934E280E
:10531000A0934F28B0935028CE0160E070E04AE09F
:1053200050E00E94D3B785EE95E0BE0147E050E023
:105330000E9448ADCE010E946DB6DC01CB01809386
:10534000512890935228A0935328B0935428CE010B
:1053500060E070E04AE050E00E94D3B78FEE95E045
:10536000BE0147E050E00E9448ADCE010E946DB6FC
:10537000DC01CB018093552890935628A0935728A1
:10538000B0935828CE0160E070E04AE050E00E94FF
:10539000D3B789EF95E0BE0147E050E00E9448ADE9
:1053A000CE010E946DB6DC01CB0180935928909309
:1053B0005A28A0935B28B0935C28CE0160E070E08F
:1053C0004AE050E00E94D3B783E096E0BE0147E098
:1053D00050E00E9448ADCE010E946DB6DC01CB01C9
:1053E00080935D2890935E28A0935F28B0936028F7
:1053F000CE0160E070E04AE050E00E94D3B78DE05B
:1054000096E0BE0147E050E00E9448ADCE010E9408
:105410006DB6DC01CB018093612890936228A09344
:105420006328B0936428CE0160E070E04AE050E069
:105430000E94D3B787E196E0BE0147E050E00E94AA
:1054400048ADCE010E946DB6DC01CB01809365288A
:1054500090936628A0936728B0936828CE0160E0F7
:1054600070E04AE050E00E94D3B781E296E0BE01CE
:1054700047E050E00E9448ADCE010E946DB6DC01CD
:10548000CB018093692890936A28A0936B28B093EE
:105490006C28CE0160E070E04AE050E00E94D3B793
:1054A0008BE296E0BE0147E050E00E9448ADCE019D
:1054B0000E946DB6DC01CB0180936D2890936E281D
:1054C000A0936F28B0937028CE0160E070E04AE0AE
:1054D00050E00E94D3B785E396E0BE0147E050E07C
:1054E0000E9448ADCE010E946DB6DC01CB018093D5
:1054F000712890937228A0937328B0937428CE01DA
:1055000060E070E04AE050E00E94D3B78FE396E09D
:10551000BE0147E050E00E9448ADCE010E946DB64A
:10552000DC01CB018093752890937628A09377288F
:10553000B0937828CE0160E070E048E050E00E942F
:10554000D3B789E496E0BE0147E050E00E9448AD41
:10555000CE010E946DB6DC01CB0180937928909337
:105560007A28A0937B28B0937C28CE0160E070E07D
:1055700043E050E00E94D3B780E596E0BE0142E0F0
:1055800050E00E9448ADCE010E9470B680939128F1
:1055900090939228DF91CF910895CF92DF92EF926E
:1055A000FF920F931F93CF93DF93CDB7DEB72C9766
:1055B000CDBFDEBFFE0131968CE0DF011D928A95E2
:1055C000E9F782ED90E00E943BAD803829F48091AC
:1055D0005C2A826080935C2A80E190E00E943BAD6F
:1055E0008093F0278091F027803809F07AC081E31A
:1055F00090E00E943BAD803809F073C080915C2A36
:10560000806880935C2A80915C2A81FF05C088E0D5
:1056100097E0A0E0B0E05DC080915C2A81FD61C0B0
:1056200082E390E00E943BAD182F00E083E390E01E
:105630000E943BADE82EFF24E02AF12AE114F10498
:1056400029F48CE390E0A0E0B0E043C084E390E074
:105650000E943BAD8D3499F42CE330E0E29EC00112
:10566000E39E900DF29E900D1124A0E0B0E0809397
:10567000F7279093F827A093F927B093FA2784E3AC
:1056800090E00E943BAD883499F420E13EE0E29E38
:10569000C001E39E900DF29E900D1124A0E0B0E0B9
:1056A0008093F7279093F827A093F927B093FA27D0
:1056B00084E390E00E943BAD843499F420E831E526
:1056C000E29EC001E39E900DF29E900D1124A0E099
:1056D000B0E08093F7279093F827A093F927B09331
:1056E000FA2785E390E00E943BAD803809F0B8C00E
:1056F00080E190E00E943BAD803809F0B1C080911C
:105700005D2A826080935D2AACE5EA2EAAE2FA2E39
:1057100080915C2A81FF15C08091602A8064F70126
:1057200084838CE390E0A0E0B0E08093FB2790932B
:10573000FC27A093FD27B093FE278091602A8F7BE2
:105740002CC080915C2A81FD8BC086E390E00E9492
:105750003BAD182F00E087E390E00E943BADC82EE0
:10576000DD24C02AD12A8091602A8064D701149652
:105770008C931497C114D10491F48CE390E0A0E0D1
:10578000B0E08093FB279093FC27A093FD27B09374
:10579000FE278091602A8F7BF701848361C088E3B4
:1057A00090E00E943BAD833559F4C601A0E0B0E023
:1057B0008093FB279093FC27A093FD27B093FE27AF
:1057C00088E390E00E943BAD8D3499F42CE330E007
:1057D000C29EC001C39E900DD29E900D1124A0E0E8
:1057E000B0E08093FB279093FC27A093FD27B09314
:1057F000FE2788E390E00E943BAD883499F420E1D5
:105800003EE0C29EC001C39E900DD29E900D112419
:10581000A0E0B0E08093FB279093FC27A093FD27A6
:10582000B093FE2788E390E00E943BAD843499F466
:1058300020E831E5C29EC001C39E900DD29E900D1E
:105840001124A0E0B0E08093FB279093FC27A09365
:10585000FD27B093FE278091602A8F7B8093602A7A
:1058600080915C2A81FD3AC08CE390E00E943BADC0
:10587000803841F48091F027803821F480915E2AAD
:1058800082600DC08CE390E00E943BAD803849F00F
:105890008091F027803829F480915E2A8D7F809353
:1058A0005E2A89E390E00E943BAD803841F480910C
:1058B000F027803821F480915D2A80640DC089E34F
:1058C00090E00E943BAD803849F08091F02780380D
:1058D00029F480915D2A8F7B80935D2A8DEA90E088
:1058E0000E943BAD803831F480915E2A84608093C1
:1058F0005E2A77DA8DEB90E00E943BAD803881F52F
:105900008091622A80648093622A80E090E0DC01CA
:105910008093DD279093DE27A093DF27B093E027C5
:105920008E010F5F1F4F8CE0F80111928A95E9F705
:105930008FEF9FE06AEF70E04AE050E098010E942C
:105940003F68C8010E948DB60E9462B0DC01CB01A5
:105950008093DD279093DE27A093DF27B093E02785
:1059600088EC90E00E943BAD803839F580E090E013
:10597000DC018093DA269093DB26A093DC26B0939B
:10598000DD268E010F5F1F4F8CE0D8011D928A9596
:10599000E9F789EC90E0B80144E050E00E9448AD9E
:1059A000C8010E946DB6DC01CB018093DA2690938A
:1059B000DB26A093DC26B093DD268FE591E00E94E4
:1059C0003BAD803459F480915E2A8F7E80935E2AAD
:1059D00080915E2A8F7D80935E2A15C08FE591E0CD
:1059E0000E943BAD803821F480915F2A8E7F09C0F0
:1059F0008FE591E00E943BAD883029F480915F2AC9
:105A0000816080935F2A8BE390E00E943BAD8038F9
:105A100021F080915D2A806103C080915D2A8F7E94
:105A200080935D2A8091602A80648093602A8FEF42
:105A30009FE068EE70E046E050E09E012F5F3F4F30
:105A40000E943F688981EA813B8120E04C8150E0DF
:105A5000422B532B7D8160E02E8130E0262B372BAB
:105A60002417350748F490E002968E1B91094150A7
:105A70005048421B530B0CC04217530790F490E060
:105A800080589C4E8E1B9109220F331F821B930B53
:105A9000440F551F840F951F8093DB279093DC27BD
:105AA0000EC0E81718F481E090E0F6CF8E1718F4D6
:105AB0008FE793E1F1CF1092DB271092DC278091E2
:105AC000602A8F7B8093602A2C96CDBFDEBFDF914A
:105AD000CF911F910F91FF90EF90DF90CF9008959D
